{
  "contractName": "MemberKeys",
  "abi": [
    {
      "inputs": [
        {
          "internalType": "string",
          "name": "_ID",
          "type": "string"
        },
        {
          "internalType": "uint256",
          "name": "Keys",
          "type": "uint256"
        },
        {
          "internalType": "uint256",
          "name": "NumberOfKeys",
          "type": "uint256"
        }
      ],
      "name": "Register",
      "outputs": [],
      "stateMutability": "nonpayable",
      "type": "function"
    },
    {
      "inputs": [
        {
          "internalType": "string",
          "name": "_ID",
          "type": "string"
        }
      ],
      "name": "isRegistred",
      "outputs": [
        {
          "internalType": "bool",
          "name": "",
          "type": "bool"
        }
      ],
      "stateMutability": "view",
      "type": "function",
      "constant": true
    },
    {
      "inputs": [
        {
          "internalType": "string[]",
          "name": "_ID",
          "type": "string[]"
        },
        {
          "internalType": "uint256",
          "name": "size",
          "type": "uint256"
        }
      ],
      "name": "GetMemberKey",
      "outputs": [
        {
          "internalType": "uint256[]",
          "name": "",
          "type": "uint256[]"
        }
      ],
      "stateMutability": "view",
      "type": "function",
      "constant": true
    },
    {
      "inputs": [
        {
          "internalType": "string",
          "name": "_ID",
          "type": "string"
        }
      ],
      "name": "GetNumberOfKeysLeft",
      "outputs": [
        {
          "internalType": "uint256",
          "name": "",
          "type": "uint256"
        }
      ],
      "stateMutability": "view",
      "type": "function",
      "constant": true
    },
    {
      "inputs": [
        {
          "internalType": "string",
          "name": "_ID",
          "type": "string"
        },
        {
          "internalType": "uint256",
          "name": "_NumberOfKeys",
          "type": "uint256"
        }
      ],
      "name": "SetNumberOfKeys",
      "outputs": [],
      "stateMutability": "nonpayable",
      "type": "function"
    },
    {
      "inputs": [
        {
          "internalType": "string",
          "name": "_ID",
          "type": "string"
        }
      ],
      "name": "DecNumberOfKeys",
      "outputs": [],
      "stateMutability": "nonpayable",
      "type": "function"
    },
    {
      "inputs": [],
      "name": "sayHello",
      "outputs": [
        {
          "internalType": "string",
          "name": "",
          "type": "string"
        }
      ],
      "stateMutability": "pure",
      "type": "function",
      "constant": true
    }
  ],
  "bytecode": "0x608060405234801561001057600080fd5b50610b25806100206000396000f3fe608060405234801561001057600080fd5b506004361061007d5760003560e01c8063bcbbe3c91161005b578063bcbbe3c9146100fe578063d03047d21461012e578063ee6e85691461014a578063ef5fb05b146101665761007d565b80630f3207ef146100825780639804d89c146100b2578063aba339c4146100e2575b600080fd5b61009c60048036038101906100979190610646565b610184565b6040516100a99190610760565b60405180910390f35b6100cc60048036038101906100c79190610782565b610257565b6040516100d991906107e6565b60405180910390f35b6100fc60048036038101906100f79190610801565b61029b565b005b61011860048036038101906101139190610782565b6102c5565b604051610125919061086c565b60405180910390f35b61014860048036038101906101439190610887565b6102f0565b005b610164600480360381019061015f9190610782565b61037c565b005b61016e6103b0565b60405161017b919061097e565b60405180910390f35b606060008267ffffffffffffffff8111156101a2576101a16103fa565b5b6040519080825280602002602001820160405280156101d05781602001602082028036833780820191505090505b50905060005b8381101561024c5760018582815181106101f3576101f26109a0565b5b60200260200101516040516102089190610a0b565b90815260200160405180910390206000015482828151811061022d5761022c6109a0565b5b602002602001018181525050808061024490610a51565b9150506101d6565b508091505092915050565b600080826040516102689190610a0b565b908152602001604051809103902060009054906101000a900460ff166102915760009050610296565b600190505b919050565b806001836040516102ac9190610a0b565b9081526020016040518091039020600101819055505050565b60006001826040516102d79190610a0b565b9081526020016040518091039020600101549050919050565b60006040518060400160405280848152602001838152509050600160008560405161031b9190610a0b565b908152602001604051809103902060006101000a81548160ff021916908315150217905550806001856040516103519190610a0b565b9081526020016040518091039020600082015181600001556020820151816001015590505050505050565b6000610387826102c5565b90506000811161039657600080fd5b6103ac826001836103a79190610a99565b61029b565b5050565b6060604051806060016040528060228152602001610ace60229139905090565b6000604051905090565b600080fd5b600080fd5b600080fd5b6000601f19601f8301169050919050565b7f4e487b7100000000000000000000000000000000000000000000000000000000600052604160045260246000fd5b610432826103e9565b810181811067ffffffffffffffff82111715610451576104506103fa565b5b80604052505050565b60006104646103d0565b90506104708282610429565b919050565b600067ffffffffffffffff8211156104905761048f6103fa565b5b602082029050602081019050919050565b600080fd5b600080fd5b600067ffffffffffffffff8211156104c6576104c56103fa565b5b6104cf826103e9565b9050602081019050919050565b82818337600083830152505050565b60006104fe6104f9846104ab565b61045a565b90508281526020810184848401111561051a576105196104a6565b5b6105258482856104dc565b509392505050565b600082601f830112610542576105416103e4565b5b81356105528482602086016104eb565b91505092915050565b600061056e61056984610475565b61045a565b90508083825260208201905060208402830185811115610591576105906104a1565b5b835b818110156105d857803567ffffffffffffffff8111156105b6576105b56103e4565b5b8086016105c3898261052d565b85526020850194505050602081019050610593565b5050509392505050565b600082601f8301126105f7576105f66103e4565b5b813561060784826020860161055b565b91505092915050565b6000819050919050565b61062381610610565b811461062e57600080fd5b50565b6000813590506106408161061a565b92915050565b6000806040838503121561065d5761065c6103da565b5b600083013567ffffffffffffffff81111561067b5761067a6103df565b5b610687858286016105e2565b925050602061069885828601610631565b9150509250929050565b600081519050919050565b600082825260208201905092915050565b6000819050602082019050919050565b6106d781610610565b82525050565b60006106e983836106ce565b60208301905092915050565b6000602082019050919050565b600061070d826106a2565b61071781856106ad565b9350610722836106be565b8060005b8381101561075357815161073a88826106dd565b9750610745836106f5565b925050600181019050610726565b5085935050505092915050565b6000602082019050818103600083015261077a8184610702565b905092915050565b600060208284031215610798576107976103da565b5b600082013567ffffffffffffffff8111156107b6576107b56103df565b5b6107c28482850161052d565b91505092915050565b60008115159050919050565b6107e0816107cb565b82525050565b60006020820190506107fb60008301846107d7565b92915050565b60008060408385031215610818576108176103da565b5b600083013567ffffffffffffffff811115610836576108356103df565b5b6108428582860161052d565b925050602061085385828601610631565b9150509250929050565b61086681610610565b82525050565b6000602082019050610881600083018461085d565b92915050565b6000806000606084860312156108a05761089f6103da565b5b600084013567ffffffffffffffff8111156108be576108bd6103df565b5b6108ca8682870161052d565b93505060206108db86828701610631565b92505060406108ec86828701610631565b9150509250925092565b600081519050919050565b600082825260208201905092915050565b60005b83811015610930578082015181840152602081019050610915565b8381111561093f576000848401525b50505050565b6000610950826108f6565b61095a8185610901565b935061096a818560208601610912565b610973816103e9565b840191505092915050565b600060208201905081810360008301526109988184610945565b905092915050565b7f4e487b7100000000000000000000000000000000000000000000000000000000600052603260045260246000fd5b600081905092915050565b60006109e5826108f6565b6109ef81856109cf565b93506109ff818560208601610912565b80840191505092915050565b6000610a1782846109da565b915081905092915050565b7f4e487b7100000000000000000000000000000000000000000000000000000000600052601160045260246000fd5b6000610a5c82610610565b91507fffffffffffffffffffffffffffffffffffffffffffffffffffffffffffffffff8203610a8e57610a8d610a22565b5b600182019050919050565b6000610aa482610610565b9150610aaf83610610565b925082821015610ac257610ac1610a22565b5b82820390509291505056fe5b215d205468697320736d61727420636f6e747261637420697320776f726b696e67a264697066735822122081d7a5d8873041d353e972f7fa0c61ff0eb72a92e92d6665a5f16d9182514c0e64736f6c634300080f0033",
  "immutableReferences": {},
  "source": "pragma solidity >=0.7.0 <0.9.0;\n// SPDX-License-Identifier: MIT\n\ncontract MemberKeys {\n\n    struct Member {\n        uint Ephkeys;\n        uint   NumberOfKeys;\n    }\n\n    mapping (string => bool )  RegistredMembers;//check the ID if the member is registred\n    mapping (string => Member) Members; //ID points to the infos\n\n    function Register(string memory _ID, uint Keys, uint NumberOfKeys) public {\n        Member memory _new = Member(Keys, NumberOfKeys);\n        RegistredMembers[_ID] = true;\n        Members[_ID] = _new;\n    }\n\n    function isRegistred(string memory _ID) public view returns (bool) {\n        if (!RegistredMembers[_ID]) {return false ;}\n        return true ;\n    }\n\n    function GetMemberKey(string[] memory _ID, uint size) public view returns (uint[] memory){\n        uint[] memory returnedkeys = new uint[](size);\n        for (uint i=0; i<size; i++) {\n            returnedkeys[i] = Members[_ID[i]].Ephkeys;\n        }\n        return returnedkeys;\n    }\n\n    function GetNumberOfKeysLeft(string memory _ID) public view returns (uint){\n        return Members[_ID].NumberOfKeys;\n    }\n\n    function SetNumberOfKeys(string memory _ID, uint _NumberOfKeys) public {\n        Members[_ID].NumberOfKeys = _NumberOfKeys ;\n    }\n\n    function DecNumberOfKeys(string memory _ID) public {\n        uint keys = GetNumberOfKeysLeft(_ID);\n        require(keys > 0);\n        SetNumberOfKeys(_ID, keys -1);\n    }\n\n    function sayHello() public pure returns (string memory) {\n        return '[!] This smart contract is working';\n    }\n}\n",
  "sourcePath": "/home/eugenes/Desktop/PFE/BlockchainAsynchronousRatchetingTree/contracts/MemberKeys.sol",
  "compiler": {
    "name": "solc",
    "version": "0.8.15+commit.e14f2714.Emscripten.clang"
  },
  "schemaVersion": "3.4.8",
  "updatedAt": "2022-09-01T22:40:39.204Z",
  "networkType": "ethereum",
  "devdoc": {
    "kind": "dev",
    "methods": {},
    "version": 1
  },
  "userdoc": {
    "kind": "user",
    "methods": {},
    "version": 1
  }
}