{
  "contractName": "TreeKeys",
  "abi": [
    {
      "inputs": [
        {
          "internalType": "string",
          "name": "_Tree_ID",
          "type": "string"
        },
        {
          "internalType": "uint256",
          "name": "_SetupKey",
          "type": "uint256"
        },
        {
          "internalType": "uint256[]",
          "name": "_Tree",
          "type": "uint256[]"
        }
      ],
      "name": "SetArtTree",
      "outputs": [],
      "stateMutability": "nonpayable",
      "type": "function"
    },
    {
      "inputs": [
        {
          "internalType": "string",
          "name": "_Tree_ID",
          "type": "string"
        }
      ],
      "name": "GetArtTree",
      "outputs": [
        {
          "internalType": "uint256[]",
          "name": "",
          "type": "uint256[]"
        }
      ],
      "stateMutability": "view",
      "type": "function",
      "constant": true
    },
    {
      "inputs": [
        {
          "internalType": "string",
          "name": "_Tree_ID",
          "type": "string"
        }
      ],
      "name": "GetSetupKey",
      "outputs": [
        {
          "internalType": "uint256",
          "name": "",
          "type": "uint256"
        }
      ],
      "stateMutability": "view",
      "type": "function",
      "constant": true
    },
    {
      "inputs": [
        {
          "internalType": "string",
          "name": "_Tree_ID",
          "type": "string"
        },
        {
          "internalType": "uint256[]",
          "name": "_Path_To_Root",
          "type": "uint256[]"
        },
        {
          "internalType": "uint256",
          "name": "_MembrePublicKey",
          "type": "uint256"
        }
      ],
      "name": "SetUpdate",
      "outputs": [],
      "stateMutability": "nonpayable",
      "type": "function"
    },
    {
      "inputs": [
        {
          "internalType": "string",
          "name": "_Tree_ID",
          "type": "string"
        }
      ],
      "name": "GetUpdates",
      "outputs": [
        {
          "components": [
            {
              "internalType": "uint256",
              "name": "MembrePublicKey",
              "type": "uint256"
            },
            {
              "internalType": "uint256[]",
              "name": "Path_To_Root",
              "type": "uint256[]"
            }
          ],
          "internalType": "struct TreeKeys.Update[]",
          "name": "",
          "type": "tuple[]"
        }
      ],
      "stateMutability": "view",
      "type": "function",
      "constant": true
    },
    {
      "inputs": [],
      "name": "sayHello",
      "outputs": [
        {
          "internalType": "string",
          "name": "",
          "type": "string"
        }
      ],
      "stateMutability": "pure",
      "type": "function",
      "constant": true
    }
  ],
  "bytecode": "0x608060405234801561001057600080fd5b50610bf1806100206000396000f3fe608060405234801561001057600080fd5b50600436106100625760003560e01c8063129f1723146100675780631eca346d14610097578063917b5acd146100c757806395ffee16146100f7578063a3e720dd14610113578063ef5fb05b1461012f575b600080fd5b610081600480360381019061007c91906105a5565b61014d565b60405161008e9190610607565b60405180910390f35b6100b160048036038101906100ac91906105a5565b610177565b6040516100be91906106e0565b60405180910390f35b6100e160048036038101906100dc91906105a5565b6101f0565b6040516100ee9190610870565b60405180910390f35b610111600480360381019061010c9190610986565b6102cf565b005b61012d60048036038101906101289190610a11565b61035f565b005b6101376103c1565b6040516101449190610b24565b60405180910390f35b6000808260405161015e9190610b82565b9081526020016040518091039020600001549050919050565b60606000826040516101899190610b82565b90815260200160405180910390206001018054806020026020016040519081016040528092919081815260200182805480156101e457602002820191906000526020600020905b8154815260200190600101908083116101d0575b50505050509050919050565b60606001826040516102029190610b82565b9081526020016040518091039020805480602002602001604051908101604052809291908181526020016000905b828210156102c4578382906000526020600020906002020160405180604001604052908160008201548152602001600182018054806020026020016040519081016040528092919081815260200182805480156102ac57602002820191906000526020600020905b815481526020019060010190808311610298575b50505050508152505081526020019060010190610230565b505050509050919050565b600060405180604001604052808381526020018481525090506001846040516102f89190610b82565b90815260200160405180910390208190806001815401808255809150506001900390600052602060002090600202016000909190919091506000820151816000015560208201518160010190805190602001906103569291906103e1565b50505050505050565b6040518060400160405280838152602001828152506000846040516103849190610b82565b90815260200160405180910390206000820151816000015560208201518160010190805190602001906103b89291906103e1565b50905050505050565b6060604051806060016040528060228152602001610b9a60229139905090565b82805482825590600052602060002090810192821561041d579160200282015b8281111561041c578251825591602001919060010190610401565b5b50905061042a919061042e565b5090565b5b8082111561044757600081600090555060010161042f565b5090565b6000604051905090565b600080fd5b600080fd5b600080fd5b600080fd5b6000601f19601f8301169050919050565b7f4e487b7100000000000000000000000000000000000000000000000000000000600052604160045260246000fd5b6104b282610469565b810181811067ffffffffffffffff821117156104d1576104d061047a565b5b80604052505050565b60006104e461044b565b90506104f082826104a9565b919050565b600067ffffffffffffffff8211156105105761050f61047a565b5b61051982610469565b9050602081019050919050565b82818337600083830152505050565b6000610548610543846104f5565b6104da565b90508281526020810184848401111561056457610563610464565b5b61056f848285610526565b509392505050565b600082601f83011261058c5761058b61045f565b5b813561059c848260208601610535565b91505092915050565b6000602082840312156105bb576105ba610455565b5b600082013567ffffffffffffffff8111156105d9576105d861045a565b5b6105e584828501610577565b91505092915050565b6000819050919050565b610601816105ee565b82525050565b600060208201905061061c60008301846105f8565b92915050565b600081519050919050565b600082825260208201905092915050565b6000819050602082019050919050565b610657816105ee565b82525050565b6000610669838361064e565b60208301905092915050565b6000602082019050919050565b600061068d82610622565b610697818561062d565b93506106a28361063e565b8060005b838110156106d35781516106ba888261065d565b97506106c583610675565b9250506001810190506106a6565b5085935050505092915050565b600060208201905081810360008301526106fa8184610682565b905092915050565b600081519050919050565b600082825260208201905092915050565b6000819050602082019050919050565b600082825260208201905092915050565b600061074a82610622565b610754818561072e565b935061075f8361063e565b8060005b83811015610790578151610777888261065d565b975061078283610675565b925050600181019050610763565b5085935050505092915050565b60006040830160008301516107b5600086018261064e565b50602083015184820360208601526107cd828261073f565b9150508091505092915050565b60006107e6838361079d565b905092915050565b6000602082019050919050565b600061080682610702565b610810818561070d565b9350836020820285016108228561071e565b8060005b8581101561085e578484038952815161083f85826107da565b945061084a836107ee565b925060208a01995050600181019050610826565b50829750879550505050505092915050565b6000602082019050818103600083015261088a81846107fb565b905092915050565b600067ffffffffffffffff8211156108ad576108ac61047a565b5b602082029050602081019050919050565b600080fd5b6108cc816105ee565b81146108d757600080fd5b50565b6000813590506108e9816108c3565b92915050565b60006109026108fd84610892565b6104da565b90508083825260208201905060208402830185811115610925576109246108be565b5b835b8181101561094e578061093a88826108da565b845260208401935050602081019050610927565b5050509392505050565b600082601f83011261096d5761096c61045f565b5b813561097d8482602086016108ef565b91505092915050565b60008060006060848603121561099f5761099e610455565b5b600084013567ffffffffffffffff8111156109bd576109bc61045a565b5b6109c986828701610577565b935050602084013567ffffffffffffffff8111156109ea576109e961045a565b5b6109f686828701610958565b9250506040610a07868287016108da565b9150509250925092565b600080600060608486031215610a2a57610a29610455565b5b600084013567ffffffffffffffff811115610a4857610a4761045a565b5b610a5486828701610577565b9350506020610a65868287016108da565b925050604084013567ffffffffffffffff811115610a8657610a8561045a565b5b610a9286828701610958565b9150509250925092565b600081519050919050565b600082825260208201905092915050565b60005b83811015610ad6578082015181840152602081019050610abb565b83811115610ae5576000848401525b50505050565b6000610af682610a9c565b610b008185610aa7565b9350610b10818560208601610ab8565b610b1981610469565b840191505092915050565b60006020820190508181036000830152610b3e8184610aeb565b905092915050565b600081905092915050565b6000610b5c82610a9c565b610b668185610b46565b9350610b76818560208601610ab8565b80840191505092915050565b6000610b8e8284610b51565b91508190509291505056fe5b215d205468697320736d61727420636f6e747261637420697320776f726b696e67a2646970667358221220b34ebe115c5f08209c4592269cca82ea5673819066a1e05bf97d93856631911b64736f6c634300080f0033",
  "immutableReferences": {},
  "source": "pragma solidity >=0.7.0 <0.9.0;\n// SPDX-License-Identifier: MIT\n\ncontract TreeKeys {\n    struct ART_Tree {\n        uint   SetupKey;\n        uint [] tree;    \n    }\n    struct Update {\n        uint MembrePublicKey;\n        uint [] Path_To_Root;\n    }\n\n    struct Groupe {\n        string TreeID;\n        uint   index;\n        //uint   KeyUsed;\n    }\n\n    mapping (string => ART_Tree) ART_Trees;//maps tree ID to its info\n    mapping (string => Update []) Updates; //maps tree ID to its update\n    mapping (string => Groupe []) MemberGroups; //maps Id of a member to his groupe\n\n    function SetArtTree(string memory _Tree_ID, uint _SetupKey, uint [] memory _Tree ) public{\n        ART_Trees[_Tree_ID] = ART_Tree(_SetupKey, _Tree);\n    }\n\n    function GetArtTree(string memory _Tree_ID) view public returns (uint [] memory){\n        return ART_Trees[_Tree_ID].tree;\n    }\n\n    function GetSetupKey(string memory _Tree_ID) view public returns (uint){\n        return ART_Trees[_Tree_ID].SetupKey;\n    }\n\n    function SetUpdate(string memory _Tree_ID, uint [] memory _Path_To_Root, uint _MembrePublicKey) public{\n        Update memory update = Update(_MembrePublicKey, _Path_To_Root);\n        Updates[_Tree_ID].push(update);\n    }\n\n    function GetUpdates(string memory _Tree_ID) view public returns (Update [] memory){\n        return Updates[_Tree_ID];\n    }\n\n    function sayHello() public pure returns (string memory) {\n        return '[!] This smart contract is working';\n    }\n}",
  "sourcePath": "/home/eugenes/Desktop/PFE/BlockchainAsynchronousRatchetingTree/contracts/TreeKeys.sol",
  "compiler": {
    "name": "solc",
    "version": "0.8.15+commit.e14f2714.Emscripten.clang"
  },
  "schemaVersion": "3.4.8",
  "updatedAt": "2022-09-01T22:40:39.210Z",
  "networkType": "ethereum",
  "devdoc": {
    "kind": "dev",
    "methods": {},
    "version": 1
  },
  "userdoc": {
    "kind": "user",
    "methods": {},
    "version": 1
  }
}